{
  "contracts/Tournament.sol": {
    "LocalTournament": {
      "abi": [
        {
          "inputs": [],
          "name": "createTournament",
          "outputs": [],
          "stateMutability": "nonpayable",
          "type": "function"
        },
        {
          "inputs": [
            {
              "internalType": "string",
              "name": "_name",
              "type": "string"
            }
          ],
          "name": "getAllMatchesPlayedByThePlayer",
          "outputs": [
            {
              "components": [
                {
                  "internalType": "uint256",
                  "name": "matchId",
                  "type": "uint256"
                },
                {
                  "internalType": "string",
                  "name": "player1",
                  "type": "string"
                },
                {
                  "internalType": "string",
                  "name": "player2",
                  "type": "string"
                },
                {
                  "internalType": "uint256",
                  "name": "player1Score",
                  "type": "uint256"
                },
                {
                  "internalType": "uint256",
                  "name": "player2Score",
                  "type": "uint256"
                },
                {
                  "internalType": "string",
                  "name": "winner",
                  "type": "string"
                }
              ],
              "internalType": "struct LocalTournament.Match[]",
              "name": "",
              "type": "tuple[]"
            }
          ],
          "stateMutability": "view",
          "type": "function"
        },
        {
          "inputs": [
            {
              "internalType": "string",
              "name": "_playerId",
              "type": "string"
            }
          ],
          "name": "getPlayerStats",
          "outputs": [
            {
              "internalType": "uint256",
              "name": "",
              "type": "uint256"
            },
            {
              "internalType": "uint256",
              "name": "",
              "type": "uint256"
            },
            {
              "internalType": "uint256",
              "name": "",
              "type": "uint256"
            }
          ],
          "stateMutability": "view",
          "type": "function"
        },
        {
          "inputs": [
            {
              "internalType": "uint256",
              "name": "_tournamentId",
              "type": "uint256"
            }
          ],
          "name": "getTournamentMatches",
          "outputs": [
            {
              "components": [
                {
                  "internalType": "uint256",
                  "name": "matchId",
                  "type": "uint256"
                },
                {
                  "internalType": "string",
                  "name": "player1",
                  "type": "string"
                },
                {
                  "internalType": "string",
                  "name": "player2",
                  "type": "string"
                },
                {
                  "internalType": "uint256",
                  "name": "player1Score",
                  "type": "uint256"
                },
                {
                  "internalType": "uint256",
                  "name": "player2Score",
                  "type": "uint256"
                },
                {
                  "internalType": "string",
                  "name": "winner",
                  "type": "string"
                }
              ],
              "internalType": "struct LocalTournament.Match[3]",
              "name": "",
              "type": "tuple[3]"
            }
          ],
          "stateMutability": "view",
          "type": "function"
        },
        {
          "inputs": [
            {
              "internalType": "string",
              "name": "",
              "type": "string"
            }
          ],
          "name": "playerStats",
          "outputs": [
            {
              "internalType": "uint256",
              "name": "totalWins",
              "type": "uint256"
            },
            {
              "internalType": "uint256",
              "name": "totalLosses",
              "type": "uint256"
            },
            {
              "internalType": "uint256",
              "name": "totalScore",
              "type": "uint256"
            }
          ],
          "stateMutability": "view",
          "type": "function"
        },
        {
          "inputs": [
            {
              "internalType": "uint256",
              "name": "_tournamentId",
              "type": "uint256"
            },
            {
              "internalType": "string",
              "name": "_player1",
              "type": "string"
            },
            {
              "internalType": "string",
              "name": "_player2",
              "type": "string"
            },
            {
              "internalType": "uint256",
              "name": "_player1Score",
              "type": "uint256"
            },
            {
              "internalType": "uint256",
              "name": "_player2Score",
              "type": "uint256"
            }
          ],
          "name": "recordMatch",
          "outputs": [],
          "stateMutability": "nonpayable",
          "type": "function"
        },
        {
          "inputs": [],
          "name": "tournamentCounter",
          "outputs": [
            {
              "internalType": "uint256",
              "name": "",
              "type": "uint256"
            }
          ],
          "stateMutability": "view",
          "type": "function"
        },
        {
          "inputs": [
            {
              "internalType": "uint256",
              "name": "",
              "type": "uint256"
            }
          ],
          "name": "tournaments",
          "outputs": [
            {
              "internalType": "uint256",
              "name": "tournamentId",
              "type": "uint256"
            },
            {
              "internalType": "uint256",
              "name": "currentMatchCount",
              "type": "uint256"
            }
          ],
          "stateMutability": "view",
          "type": "function"
        }
      ],
      "evm": {
        "bytecode": {
          "linkReferences": {},
          "object": "608060405260036000806101000a81548160ff021916908360ff1602179055506000600355348015602f57600080fd5b50611a298061003f6000396000f3fe608060405234801561001057600080fd5b50600436106100885760003560e01c80637503e1b71161005b5780637503e1b7146101295780639dae60811461015a578063c2b8eaa314610164578063d8c57e851461019657610088565b80632a9bc7811461008d57806345feda97146100bf5780635e42ea0e146100db57806373ed5c1c1461010b575b600080fd5b6100a760048036038101906100a29190610f11565b6101c6565b6040516100b693929190610f73565b60405180910390f35b6100d960048036038101906100d49190610fd6565b610206565b005b6100f560048036038101906100f09190610f11565b610526565b6040516101029190611270565b60405180910390f35b6101136109d9565b6040516101209190611292565b60405180910390f35b610143600480360381019061013e91906112ad565b6109df565b6040516101519291906112da565b60405180910390f35b610162610a03565b005b61017e60048036038101906101799190610f11565b610a5a565b60405161018d93929190610f73565b60405180910390f35b6101b060048036038101906101ab91906112ad565b610ac6565b6040516101bd91906113a5565b60405180910390f35b6001818051602081018201805184825260208301602085012081835280955050505050506000915090508060000154908060010154908060020154905083565b60006002600087815260200190815260200160002090506000861015801561023057506003548611155b61026f576040517f08c379a000000000000000000000000000000000000000000000000000000000815260040161026690611424565b60405180910390fd5b60008054906101000a900460ff1660ff168160130154106102c5576040517f08c379a00000000000000000000000000000000000000000000000000000000081526004016102bc906114b6565b60405180910390fd5b606082841115610345578590506001866040516102e29190611512565b9081526020016040518091039020600001600081548092919061030490611558565b91905055506001856040516103199190611512565b9081526020016040518091039020600101600081548092919061033b90611558565b91905055506103b7565b8490506001856040516103589190611512565b9081526020016040518091039020600001600081548092919061037a90611558565b919050555060018660405161038f9190611512565b908152602001604051809103902060010160008154809291906103b190611558565b91905055505b836001876040516103c89190611512565b908152602001604051809103902060020160008282546103e891906115a0565b92505081905550826001866040516104009190611512565b9081526020016040518091039020600201600082825461042091906115a0565b9250508190555060006040518060c001604052808460130154815260200188815260200187815260200186815260200185815260200183815250905080600260008a8152602001908152602001600020600101600260008b8152602001908152602001600020601301546003811061049b5761049a6115d4565b5b600602016000820151816000015560208201518160010190816104be919061180f565b5060408201518160020190816104d4919061180f565b50606082015181600301556080820151816004015560a08201518160050190816104fe919061180f565b5090505082601301600081548092919061051790611558565b91905055505050505050505050565b606060008060009054906101000a900460ff1660ff1660035461054991906118e1565b905060008167ffffffffffffffff81111561056757610566610de6565b5b6040519080825280602002602001820160405280156105a057816020015b61058d610d54565b8152602001906001900390816105855790505b509050600080856040516020016105b79190611512565b60405160208183030381529060405280519060200120905060005b6003548160ff16116109215760005b60008054906101000a900460ff1660ff168160ff16101561090d57600260008360ff1681526020019081526020016000206001018160ff166003811061062a576106296115d4565b5b6006020160010160405160200161064191906119a6565b604051602081830303815290604052805190602001208314806106bd5750600260008360ff1681526020019081526020016000206001018160ff166003811061068d5761068c6115d4565b5b600602016002016040516020016106a491906119a6565b6040516020818303038152906040528051906020012083145b1561090057600260008360ff1681526020019081526020016000206001018160ff16600381106106f0576106ef6115d4565b5b600602016040518060c00160405290816000820154815260200160018201805461071990611632565b80601f016020809104026020016040519081016040528092919081815260200182805461074590611632565b80156107925780601f1061076757610100808354040283529160200191610792565b820191906000526020600020905b81548152906001019060200180831161077557829003601f168201915b505050505081526020016002820180546107ab90611632565b80601f01602080910402602001604051908101604052809291908181526020018280546107d790611632565b80156108245780601f106107f957610100808354040283529160200191610824565b820191906000526020600020905b81548152906001019060200180831161080757829003601f168201915b50505050508152602001600382015481526020016004820154815260200160058201805461085190611632565b80601f016020809104026020016040519081016040528092919081815260200182805461087d90611632565b80156108ca5780601f1061089f576101008083540402835291602001916108ca565b820191906000526020600020905b8154815290600101906020018083116108ad57829003601f168201915b5050505050815250508585815181106108e6576108e56115d4565b5b602002602001018190525083806108fc90611558565b9450505b80806001019150506105e1565b508080610919906119ca565b9150506105d2565b5060008267ffffffffffffffff81111561093e5761093d610de6565b5b60405190808252806020026020018201604052801561097757816020015b610964610d54565b81526020019060019003908161095c5790505b50905060005b838110156109cb57848181518110610998576109976115d4565b5b60200260200101518282815181106109b3576109b26115d4565b5b6020026020010181905250808060010191505061097d565b508095505050505050919050565b60035481565b60026020528060005260406000206000915090508060000154908060130154905082565b6003546002600060035481526020019081526020016000206000018190555060006002600060035481526020019081526020016000206013018190555060036000815480929190610a5390611558565b9190505550565b600080600080600185604051610a709190611512565b908152602001604051809103902060405180606001604052908160008201548152602001600182015481526020016002820154815250509050806000015181602001518260400151935093509350509193909250565b610ace610d8a565b60008210158015610ae157506003548211155b610b20576040517f08c379a0000000000000000000000000000000000000000000000000000000008152600401610b1790611424565b60405180910390fd5b60026000838152602001908152602001600020600101600380602002604051908101604052809291906000905b82821015610d49578382600602016040518060c001604052908160008201548152602001600182018054610b8090611632565b80601f0160208091040260200160405190810160405280929190818152602001828054610bac90611632565b8015610bf95780601f10610bce57610100808354040283529160200191610bf9565b820191906000526020600020905b815481529060010190602001808311610bdc57829003601f168201915b50505050508152602001600282018054610c1290611632565b80601f0160208091040260200160405190810160405280929190818152602001828054610c3e90611632565b8015610c8b5780601f10610c6057610100808354040283529160200191610c8b565b820191906000526020600020905b815481529060010190602001808311610c6e57829003601f168201915b505050505081526020016003820154815260200160048201548152602001600582018054610cb890611632565b80601f0160208091040260200160405190810160405280929190818152602001828054610ce490611632565b8015610d315780601f10610d0657610100808354040283529160200191610d31565b820191906000526020600020905b815481529060010190602001808311610d1457829003601f168201915b50505050508152505081526020019060010190610b4d565b505050509050919050565b6040518060c001604052806000815260200160608152602001606081526020016000815260200160008152602001606081525090565b60405180606001604052806003905b610da1610d54565b815260200190600190039081610d995790505090565b6000604051905090565b600080fd5b600080fd5b600080fd5b600080fd5b6000601f19601f8301169050919050565b7f4e487b7100000000000000000000000000000000000000000000000000000000600052604160045260246000fd5b610e1e82610dd5565b810181811067ffffffffffffffff82111715610e3d57610e3c610de6565b5b80604052505050565b6000610e50610db7565b9050610e5c8282610e15565b919050565b600067ffffffffffffffff821115610e7c57610e7b610de6565b5b610e8582610dd5565b9050602081019050919050565b82818337600083830152505050565b6000610eb4610eaf84610e61565b610e46565b905082815260208101848484011115610ed057610ecf610dd0565b5b610edb848285610e92565b509392505050565b600082601f830112610ef857610ef7610dcb565b5b8135610f08848260208601610ea1565b91505092915050565b600060208284031215610f2757610f26610dc1565b5b600082013567ffffffffffffffff811115610f4557610f44610dc6565b5b610f5184828501610ee3565b91505092915050565b6000819050919050565b610f6d81610f5a565b82525050565b6000606082019050610f886000830186610f64565b610f956020830185610f64565b610fa26040830184610f64565b949350505050565b610fb381610f5a565b8114610fbe57600080fd5b50565b600081359050610fd081610faa565b92915050565b600080600080600060a08688031215610ff257610ff1610dc1565b5b600061100088828901610fc1565b955050602086013567ffffffffffffffff81111561102157611020610dc6565b5b61102d88828901610ee3565b945050604086013567ffffffffffffffff81111561104e5761104d610dc6565b5b61105a88828901610ee3565b935050606061106b88828901610fc1565b925050608061107c88828901610fc1565b9150509295509295909350565b600081519050919050565b600082825260208201905092915050565b6000819050602082019050919050565b6110be81610f5a565b82525050565b600081519050919050565b600082825260208201905092915050565b60005b838110156110fe5780820151818401526020810190506110e3565b60008484015250505050565b6000611115826110c4565b61111f81856110cf565b935061112f8185602086016110e0565b61113881610dd5565b840191505092915050565b600060c08301600083015161115b60008601826110b5565b5060208301518482036020860152611173828261110a565b9150506040830151848203604086015261118d828261110a565b91505060608301516111a260608601826110b5565b5060808301516111b560808601826110b5565b5060a083015184820360a08601526111cd828261110a565b9150508091505092915050565b60006111e68383611143565b905092915050565b6000602082019050919050565b600061120682611089565b6112108185611094565b935083602082028501611222856110a5565b8060005b8581101561125e578484038952815161123f85826111da565b945061124a836111ee565b925060208a01995050600181019050611226565b50829750879550505050505092915050565b6000602082019050818103600083015261128a81846111fb565b905092915050565b60006020820190506112a76000830184610f64565b92915050565b6000602082840312156112c3576112c2610dc1565b5b60006112d184828501610fc1565b91505092915050565b60006040820190506112ef6000830185610f64565b6112fc6020830184610f64565b9392505050565b600060039050919050565b600081905092915050565b6000819050919050565b6000602082019050919050565b600061133b82611303565b611345818561130e565b93508360208202850161135785611319565b8060005b85811015611393578484038952815161137485826111da565b945061137f83611323565b925060208a0199505060018101905061135b565b50829750879550505050505092915050565b600060208201905081810360008301526113bf8184611330565b905092915050565b600082825260208201905092915050565b7f496e76616c696420746f75726e616d656e742049440000000000000000000000600082015250565b600061140e6015836113c7565b9150611419826113d8565b602082019050919050565b6000602082019050818103600083015261143d81611401565b9050919050565b7f43616e6e6f7420616464206d6f7265207468616e2033206d617463686573207060008201527f657220746f75726e616d656e7400000000000000000000000000000000000000602082015250565b60006114a0602d836113c7565b91506114ab82611444565b604082019050919050565b600060208201905081810360008301526114cf81611493565b9050919050565b600081905092915050565b60006114ec826110c4565b6114f681856114d6565b93506115068185602086016110e0565b80840191505092915050565b600061151e82846114e1565b915081905092915050565b7f4e487b7100000000000000000000000000000000000000000000000000000000600052601160045260246000fd5b600061156382610f5a565b91507fffffffffffffffffffffffffffffffffffffffffffffffffffffffffffffffff820361159557611594611529565b5b600182019050919050565b60006115ab82610f5a565b91506115b683610f5a565b92508282019050808211156115ce576115cd611529565b5b92915050565b7f4e487b7100000000000000000000000000000000000000000000000000000000600052603260045260246000fd5b7f4e487b7100000000000000000000000000000000000000000000000000000000600052602260045260246000fd5b6000600282049050600182168061164a57607f821691505b60208210810361165d5761165c611603565b5b50919050565b60008190508160005260206000209050919050565b60006020601f8301049050919050565b600082821b905092915050565b6000600883026116c57fffffffffffffffffffffffffffffffffffffffffffffffffffffffffffffffff82611688565b6116cf8683611688565b95508019841693508086168417925050509392505050565b6000819050919050565b600061170c61170761170284610f5a565b6116e7565b610f5a565b9050919050565b6000819050919050565b611726836116f1565b61173a61173282611713565b848454611695565b825550505050565b600090565b61174f611742565b61175a81848461171d565b505050565b5b8181101561177e57611773600082611747565b600181019050611760565b5050565b601f8211156117c35761179481611663565b61179d84611678565b810160208510156117ac578190505b6117c06117b885611678565b83018261175f565b50505b505050565b600082821c905092915050565b60006117e6600019846008026117c8565b1980831691505092915050565b60006117ff83836117d5565b9150826002028217905092915050565b611818826110c4565b67ffffffffffffffff81111561183157611830610de6565b5b61183b8254611632565b611846828285611782565b600060209050601f8311600181146118795760008415611867578287015190505b61187185826117f3565b8655506118d9565b601f19841661188786611663565b60005b828110156118af5784890151825560018201915060208501945060208101905061188a565b868310156118cc57848901516118c8601f8916826117d5565b8355505b6001600288020188555050505b505050505050565b60006118ec82610f5a565b91506118f783610f5a565b925082820261190581610f5a565b9150828204841483151761191c5761191b611529565b5b5092915050565b6000815461193081611632565b61193a81866114d6565b94506001821660008114611955576001811461196a5761199d565b60ff198316865281151582028601935061199d565b61197385611663565b60005b8381101561199557815481890152600182019150602081019050611976565b838801955050505b50505092915050565b60006119b28284611923565b915081905092915050565b600060ff82169050919050565b60006119d5826119bd565b915060ff82036119e8576119e7611529565b5b60018201905091905056fea2646970667358221220a86aba4e948ea7c28f6a7c7e7ec33329db69229aeeec8a20c523f42fe41304e764736f6c634300081b0033",
          "opcodes": "PUSH1 0x80 PUSH1 0x40 MSTORE PUSH1 0x3 PUSH1 0x0 DUP1 PUSH2 0x100 EXP DUP2 SLOAD DUP2 PUSH1 0xFF MUL NOT AND SWAP1 DUP4 PUSH1 0xFF AND MUL OR SWAP1 SSTORE POP PUSH1 0x0 PUSH1 0x3 SSTORE CALLVALUE DUP1 ISZERO PUSH1 0x2F JUMPI PUSH1 0x0 DUP1 REVERT JUMPDEST POP PUSH2 0x1A29 DUP1 PUSH2 0x3F PUSH1 0x0 CODECOPY PUSH1 0x0 RETURN INVALID PUSH1 0x80 PUSH1 0x40 MSTORE CALLVALUE DUP1 ISZERO PUSH2 0x10 JUMPI PUSH1 0x0 DUP1 REVERT JUMPDEST POP PUSH1 0x4 CALLDATASIZE LT PUSH2 0x88 JUMPI PUSH1 0x0 CALLDATALOAD PUSH1 0xE0 SHR DUP1 PUSH4 0x7503E1B7 GT PUSH2 0x5B JUMPI DUP1 PUSH4 0x7503E1B7 EQ PUSH2 0x129 JUMPI DUP1 PUSH4 0x9DAE6081 EQ PUSH2 0x15A JUMPI DUP1 PUSH4 0xC2B8EAA3 EQ PUSH2 0x164 JUMPI DUP1 PUSH4 0xD8C57E85 EQ PUSH2 0x196 JUMPI PUSH2 0x88 JUMP JUMPDEST DUP1 PUSH4 0x2A9BC781 EQ PUSH2 0x8D JUMPI DUP1 PUSH4 0x45FEDA97 EQ PUSH2 0xBF JUMPI DUP1 PUSH4 0x5E42EA0E EQ PUSH2 0xDB JUMPI DUP1 PUSH4 0x73ED5C1C EQ PUSH2 0x10B JUMPI JUMPDEST PUSH1 0x0 DUP1 REVERT JUMPDEST PUSH2 0xA7 PUSH1 0x4 DUP1 CALLDATASIZE SUB DUP2 ADD SWAP1 PUSH2 0xA2 SWAP2 SWAP1 PUSH2 0xF11 JUMP JUMPDEST PUSH2 0x1C6 JUMP JUMPDEST PUSH1 0x40 MLOAD PUSH2 0xB6 SWAP4 SWAP3 SWAP2 SWAP1 PUSH2 0xF73 JUMP JUMPDEST PUSH1 0x40 MLOAD DUP1 SWAP2 SUB SWAP1 RETURN JUMPDEST PUSH2 0xD9 PUSH1 0x4 DUP1 CALLDATASIZE SUB DUP2 ADD SWAP1 PUSH2 0xD4 SWAP2 SWAP1 PUSH2 0xFD6 JUMP JUMPDEST PUSH2 0x206 JUMP JUMPDEST STOP JUMPDEST PUSH2 0xF5 PUSH1 0x4 DUP1 CALLDATASIZE SUB DUP2 ADD SWAP1 PUSH2 0xF0 SWAP2 SWAP1 PUSH2 0xF11 JUMP JUMPDEST PUSH2 0x526 JUMP JUMPDEST PUSH1 0x40 MLOAD PUSH2 0x102 SWAP2 SWAP1 PUSH2 0x1270 JUMP JUMPDEST PUSH1 0x40 MLOAD DUP1 SWAP2 SUB SWAP1 RETURN JUMPDEST PUSH2 0x113 PUSH2 0x9D9 JUMP JUMPDEST PUSH1 0x40 MLOAD PUSH2 0x120 SWAP2 SWAP1 PUSH2 0x1292 JUMP JUMPDEST PUSH1 0x40 MLOAD DUP1 SWAP2 SUB SWAP1 RETURN JUMPDEST PUSH2 0x143 PUSH1 0x4 DUP1 CALLDATASIZE SUB DUP2 ADD SWAP1 PUSH2 0x13E SWAP2 SWAP1 PUSH2 0x12AD JUMP JUMPDEST PUSH2 0x9DF JUMP JUMPDEST PUSH1 0x40 MLOAD PUSH2 0x151 SWAP3 SWAP2 SWAP1 PUSH2 0x12DA JUMP JUMPDEST PUSH1 0x40 MLOAD DUP1 SWAP2 SUB SWAP1 RETURN JUMPDEST PUSH2 0x162 PUSH2 0xA03 JUMP JUMPDEST STOP JUMPDEST PUSH2 0x17E PUSH1 0x4 DUP1 CALLDATASIZE SUB DUP2 ADD SWAP1 PUSH2 0x179 SWAP2 SWAP1 PUSH2 0xF11 JUMP JUMPDEST PUSH2 0xA5A JUMP JUMPDEST PUSH1 0x40 MLOAD PUSH2 0x18D SWAP4 SWAP3 SWAP2 SWAP1 PUSH2 0xF73 JUMP JUMPDEST PUSH1 0x40 MLOAD DUP1 SWAP2 SUB SWAP1 RETURN JUMPDEST PUSH2 0x1B0 PUSH1 0x4 DUP1 CALLDATASIZE SUB DUP2 ADD SWAP1 PUSH2 0x1AB SWAP2 SWAP1 PUSH2 0x12AD JUMP JUMPDEST PUSH2 0xAC6 JUMP JUMPDEST PUSH1 0x40 MLOAD PUSH2 0x1BD SWAP2 SWAP1 PUSH2 0x13A5 JUMP JUMPDEST PUSH1 0x40 MLOAD DUP1 SWAP2 SUB SWAP1 RETURN JUMPDEST PUSH1 0x1 DUP2 DUP1 MLOAD PUSH1 0x20 DUP2 ADD DUP3 ADD DUP1 MLOAD DUP5 DUP3 MSTORE PUSH1 0x20 DUP4 ADD PUSH1 0x20 DUP6 ADD KECCAK256 DUP2 DUP4 MSTORE DUP1 SWAP6 POP POP POP POP POP POP PUSH1 0x0 SWAP2 POP SWAP1 POP DUP1 PUSH1 0x0 ADD SLOAD SWAP1 DUP1 PUSH1 0x1 ADD SLOAD SWAP1 DUP1 PUSH1 0x2 ADD SLOAD SWAP1 POP DUP4 JUMP JUMPDEST PUSH1 0x0 PUSH1 0x2 PUSH1 0x0 DUP8 DUP2 MSTORE PUSH1 0x20 ADD SWAP1 DUP2 MSTORE PUSH1 0x20 ADD PUSH1 0x0 KECCAK256 SWAP1 POP PUSH1 0x0 DUP7 LT ISZERO DUP1 ISZERO PUSH2 0x230 JUMPI POP PUSH1 0x3 SLOAD DUP7 GT ISZERO JUMPDEST PUSH2 0x26F JUMPI PUSH1 0x40 MLOAD PUSH32 0x8C379A000000000000000000000000000000000000000000000000000000000 DUP2 MSTORE PUSH1 0x4 ADD PUSH2 0x266 SWAP1 PUSH2 0x1424 JUMP JUMPDEST PUSH1 0x40 MLOAD DUP1 SWAP2 SUB SWAP1 REVERT JUMPDEST PUSH1 0x0 DUP1 SLOAD SWAP1 PUSH2 0x100 EXP SWAP1 DIV PUSH1 0xFF AND PUSH1 0xFF AND DUP2 PUSH1 0x13 ADD SLOAD LT PUSH2 0x2C5 JUMPI PUSH1 0x40 MLOAD PUSH32 0x8C379A000000000000000000000000000000000000000000000000000000000 DUP2 MSTORE PUSH1 0x4 ADD PUSH2 0x2BC SWAP1 PUSH2 0x14B6 JUMP JUMPDEST PUSH1 0x40 MLOAD DUP1 SWAP2 SUB SWAP1 REVERT JUMPDEST PUSH1 0x60 DUP3 DUP5 GT ISZERO PUSH2 0x345 JUMPI DUP6 SWAP1 POP PUSH1 0x1 DUP7 PUSH1 0x40 MLOAD PUSH2 0x2E2 SWAP2 SWAP1 PUSH2 0x1512 JUMP JUMPDEST SWAP1 DUP2 MSTORE PUSH1 0x20 ADD PUSH1 0x40 MLOAD DUP1 SWAP2 SUB SWAP1 KECCAK256 PUSH1 0x0 ADD PUSH1 0x0 DUP2 SLOAD DUP1 SWAP3 SWAP2 SWAP1 PUSH2 0x304 SWAP1 PUSH2 0x1558 JUMP JUMPDEST SWAP2 SWAP1 POP SSTORE POP PUSH1 0x1 DUP6 PUSH1 0x40 MLOAD PUSH2 0x319 SWAP2 SWAP1 PUSH2 0x1512 JUMP JUMPDEST SWAP1 DUP2 MSTORE PUSH1 0x20 ADD PUSH1 0x40 MLOAD DUP1 SWAP2 SUB SWAP1 KECCAK256 PUSH1 0x1 ADD PUSH1 0x0 DUP2 SLOAD DUP1 SWAP3 SWAP2 SWAP1 PUSH2 0x33B SWAP1 PUSH2 0x1558 JUMP JUMPDEST SWAP2 SWAP1 POP SSTORE POP PUSH2 0x3B7 JUMP JUMPDEST DUP5 SWAP1 POP PUSH1 0x1 DUP6 PUSH1 0x40 MLOAD PUSH2 0x358 SWAP2 SWAP1 PUSH2 0x1512 JUMP JUMPDEST SWAP1 DUP2 MSTORE PUSH1 0x20 ADD PUSH1 0x40 MLOAD DUP1 SWAP2 SUB SWAP1 KECCAK256 PUSH1 0x0 ADD PUSH1 0x0 DUP2 SLOAD DUP1 SWAP3 SWAP2 SWAP1 PUSH2 0x37A SWAP1 PUSH2 0x1558 JUMP JUMPDEST SWAP2 SWAP1 POP SSTORE POP PUSH1 0x1 DUP7 PUSH1 0x40 MLOAD PUSH2 0x38F SWAP2 SWAP1 PUSH2 0x1512 JUMP JUMPDEST SWAP1 DUP2 MSTORE PUSH1 0x20 ADD PUSH1 0x40 MLOAD DUP1 SWAP2 SUB SWAP1 KECCAK256 PUSH1 0x1 ADD PUSH1 0x0 DUP2 SLOAD DUP1 SWAP3 SWAP2 SWAP1 PUSH2 0x3B1 SWAP1 PUSH2 0x1558 JUMP JUMPDEST SWAP2 SWAP1 POP SSTORE POP JUMPDEST DUP4 PUSH1 0x1 DUP8 PUSH1 0x40 MLOAD PUSH2 0x3C8 SWAP2 SWAP1 PUSH2 0x1512 JUMP JUMPDEST SWAP1 DUP2 MSTORE PUSH1 0x20 ADD PUSH1 0x40 MLOAD DUP1 SWAP2 SUB SWAP1 KECCAK256 PUSH1 0x2 ADD PUSH1 0x0 DUP3 DUP3 SLOAD PUSH2 0x3E8 SWAP2 SWAP1 PUSH2 0x15A0 JUMP JUMPDEST SWAP3 POP POP DUP2 SWAP1 SSTORE POP DUP3 PUSH1 0x1 DUP7 PUSH1 0x40 MLOAD PUSH2 0x400 SWAP2 SWAP1 PUSH2 0x1512 JUMP JUMPDEST SWAP1 DUP2 MSTORE PUSH1 0x20 ADD PUSH1 0x40 MLOAD DUP1 SWAP2 SUB SWAP1 KECCAK256 PUSH1 0x2 ADD PUSH1 0x0 DUP3 DUP3 SLOAD PUSH2 0x420 SWAP2 SWAP1 PUSH2 0x15A0 JUMP JUMPDEST SWAP3 POP POP DUP2 SWAP1 SSTORE POP PUSH1 0x0 PUSH1 0x40 MLOAD DUP1 PUSH1 0xC0 ADD PUSH1 0x40 MSTORE DUP1 DUP5 PUSH1 0x13 ADD SLOAD DUP2 MSTORE PUSH1 0x20 ADD DUP9 DUP2 MSTORE PUSH1 0x20 ADD DUP8 DUP2 MSTORE PUSH1 0x20 ADD DUP7 DUP2 MSTORE PUSH1 0x20 ADD DUP6 DUP2 MSTORE PUSH1 0x20 ADD DUP4 DUP2 MSTORE POP SWAP1 POP DUP1 PUSH1 0x2 PUSH1 0x0 DUP11 DUP2 MSTORE PUSH1 0x20 ADD SWAP1 DUP2 MSTORE PUSH1 0x20 ADD PUSH1 0x0 KECCAK256 PUSH1 0x1 ADD PUSH1 0x2 PUSH1 0x0 DUP12 DUP2 MSTORE PUSH1 0x20 ADD SWAP1 DUP2 MSTORE PUSH1 0x20 ADD PUSH1 0x0 KECCAK256 PUSH1 0x13 ADD SLOAD PUSH1 0x3 DUP2 LT PUSH2 0x49B JUMPI PUSH2 0x49A PUSH2 0x15D4 JUMP JUMPDEST JUMPDEST PUSH1 0x6 MUL ADD PUSH1 0x0 DUP3 ADD MLOAD DUP2 PUSH1 0x0 ADD SSTORE PUSH1 0x20 DUP3 ADD MLOAD DUP2 PUSH1 0x1 ADD SWAP1 DUP2 PUSH2 0x4BE SWAP2 SWAP1 PUSH2 0x180F JUMP JUMPDEST POP PUSH1 0x40 DUP3 ADD MLOAD DUP2 PUSH1 0x2 ADD SWAP1 DUP2 PUSH2 0x4D4 SWAP2 SWAP1 PUSH2 0x180F JUMP JUMPDEST POP PUSH1 0x60 DUP3 ADD MLOAD DUP2 PUSH1 0x3 ADD SSTORE PUSH1 0x80 DUP3 ADD MLOAD DUP2 PUSH1 0x4 ADD SSTORE PUSH1 0xA0 DUP3 ADD MLOAD DUP2 PUSH1 0x5 ADD SWAP1 DUP2 PUSH2 0x4FE SWAP2 SWAP1 PUSH2 0x180F JUMP JUMPDEST POP SWAP1 POP POP DUP3 PUSH1 0x13 ADD PUSH1 0x0 DUP2 SLOAD DUP1 SWAP3 SWAP2 SWAP1 PUSH2 0x517 SWAP1 PUSH2 0x1558 JUMP JUMPDEST SWAP2 SWAP1 POP SSTORE POP POP POP POP POP POP POP POP POP JUMP JUMPDEST PUSH1 0x60 PUSH1 0x0 DUP1 PUSH1 0x0 SWAP1 SLOAD SWAP1 PUSH2 0x100 EXP SWAP1 DIV PUSH1 0xFF AND PUSH1 0xFF AND PUSH1 0x3 SLOAD PUSH2 0x549 SWAP2 SWAP1 PUSH2 0x18E1 JUMP JUMPDEST SWAP1 POP PUSH1 0x0 DUP2 PUSH8 0xFFFFFFFFFFFFFFFF DUP2 GT ISZERO PUSH2 0x567 JUMPI PUSH2 0x566 PUSH2 0xDE6 JUMP JUMPDEST JUMPDEST PUSH1 0x40 MLOAD SWAP1 DUP1 DUP3 MSTORE DUP1 PUSH1 0x20 MUL PUSH1 0x20 ADD DUP3 ADD PUSH1 0x40 MSTORE DUP1 ISZERO PUSH2 0x5A0 JUMPI DUP2 PUSH1 0x20 ADD JUMPDEST PUSH2 0x58D PUSH2 0xD54 JUMP JUMPDEST DUP2 MSTORE PUSH1 0x20 ADD SWAP1 PUSH1 0x1 SWAP1 SUB SWAP1 DUP2 PUSH2 0x585 JUMPI SWAP1 POP JUMPDEST POP SWAP1 POP PUSH1 0x0 DUP1 DUP6 PUSH1 0x40 MLOAD PUSH1 0x20 ADD PUSH2 0x5B7 SWAP2 SWAP1 PUSH2 0x1512 JUMP JUMPDEST PUSH1 0x40 MLOAD PUSH1 0x20 DUP2 DUP4 SUB SUB DUP2 MSTORE SWAP1 PUSH1 0x40 MSTORE DUP1 MLOAD SWAP1 PUSH1 0x20 ADD KECCAK256 SWAP1 POP PUSH1 0x0 JUMPDEST PUSH1 0x3 SLOAD DUP2 PUSH1 0xFF AND GT PUSH2 0x921 JUMPI PUSH1 0x0 JUMPDEST PUSH1 0x0 DUP1 SLOAD SWAP1 PUSH2 0x100 EXP SWAP1 DIV PUSH1 0xFF AND PUSH1 0xFF AND DUP2 PUSH1 0xFF AND LT ISZERO PUSH2 0x90D JUMPI PUSH1 0x2 PUSH1 0x0 DUP4 PUSH1 0xFF AND DUP2 MSTORE PUSH1 0x20 ADD SWAP1 DUP2 MSTORE PUSH1 0x20 ADD PUSH1 0x0 KECCAK256 PUSH1 0x1 ADD DUP2 PUSH1 0xFF AND PUSH1 0x3 DUP2 LT PUSH2 0x62A JUMPI PUSH2 0x629 PUSH2 0x15D4 JUMP JUMPDEST JUMPDEST PUSH1 0x6 MUL ADD PUSH1 0x1 ADD PUSH1 0x40 MLOAD PUSH1 0x20 ADD PUSH2 0x641 SWAP2 SWAP1 PUSH2 0x19A6 JUMP JUMPDEST PUSH1 0x40 MLOAD PUSH1 0x20 DUP2 DUP4 SUB SUB DUP2 MSTORE SWAP1 PUSH1 0x40 MSTORE DUP1 MLOAD SWAP1 PUSH1 0x20 ADD KECCAK256 DUP4 EQ DUP1 PUSH2 0x6BD JUMPI POP PUSH1 0x2 PUSH1 0x0 DUP4 PUSH1 0xFF AND DUP2 MSTORE PUSH1 0x20 ADD SWAP1 DUP2 MSTORE PUSH1 0x20 ADD PUSH1 0x0 KECCAK256 PUSH1 0x1 ADD DUP2 PUSH1 0xFF AND PUSH1 0x3 DUP2 LT PUSH2 0x68D JUMPI PUSH2 0x68C PUSH2 0x15D4 JUMP JUMPDEST JUMPDEST PUSH1 0x6 MUL ADD PUSH1 0x2 ADD PUSH1 0x40 MLOAD PUSH1 0x20 ADD PUSH2 0x6A4 SWAP2 SWAP1 PUSH2 0x19A6 JUMP JUMPDEST PUSH1 0x40 MLOAD PUSH1 0x20 DUP2 DUP4 SUB SUB DUP2 MSTORE SWAP1 PUSH1 0x40 MSTORE DUP1 MLOAD SWAP1 PUSH1 0x20 ADD KECCAK256 DUP4 EQ JUMPDEST ISZERO PUSH2 0x900 JUMPI PUSH1 0x2 PUSH1 0x0 DUP4 PUSH1 0xFF AND DUP2 MSTORE PUSH1 0x20 ADD SWAP1 DUP2 MSTORE PUSH1 0x20 ADD PUSH1 0x0 KECCAK256 PUSH1 0x1 ADD DUP2 PUSH1 0xFF AND PUSH1 0x3 DUP2 LT PUSH2 0x6F0 JUMPI PUSH2 0x6EF PUSH2 0x15D4 JUMP JUMPDEST JUMPDEST PUSH1 0x6 MUL ADD PUSH1 0x40 MLOAD DUP1 PUSH1 0xC0 ADD PUSH1 0x40 MSTORE SWAP1 DUP2 PUSH1 0x0 DUP3 ADD SLOAD DUP2 MSTORE PUSH1 0x20 ADD PUSH1 0x1 DUP3 ADD DUP1 SLOAD PUSH2 0x719 SWAP1 PUSH2 0x1632 JUMP JUMPDEST DUP1 PUSH1 0x1F ADD PUSH1 0x20 DUP1 SWAP2 DIV MUL PUSH1 0x20 ADD PUSH1 0x40 MLOAD SWAP1 DUP2 ADD PUSH1 0x40 MSTORE DUP1 SWAP3 SWAP2 SWAP1 DUP2 DUP2 MSTORE PUSH1 0x20 ADD DUP3 DUP1 SLOAD PUSH2 0x745 SWAP1 PUSH2 0x1632 JUMP JUMPDEST DUP1 ISZERO PUSH2 0x792 JUMPI DUP1 PUSH1 0x1F LT PUSH2 0x767 JUMPI PUSH2 0x100 DUP1 DUP4 SLOAD DIV MUL DUP4 MSTORE SWAP2 PUSH1 0x20 ADD SWAP2 PUSH2 0x792 JUMP JUMPDEST DUP3 ADD SWAP2 SWAP1 PUSH1 0x0 MSTORE PUSH1 0x20 PUSH1 0x0 KECCAK256 SWAP1 JUMPDEST DUP2 SLOAD DUP2 MSTORE SWAP1 PUSH1 0x1 ADD SWAP1 PUSH1 0x20 ADD DUP1 DUP4 GT PUSH2 0x775 JUMPI DUP3 SWAP1 SUB PUSH1 0x1F AND DUP3 ADD SWAP2 JUMPDEST POP POP POP POP POP DUP2 MSTORE PUSH1 0x20 ADD PUSH1 0x2 DUP3 ADD DUP1 SLOAD PUSH2 0x7AB SWAP1 PUSH2 0x1632 JUMP JUMPDEST DUP1 PUSH1 0x1F ADD PUSH1 0x20 DUP1 SWAP2 DIV MUL PUSH1 0x20 ADD PUSH1 0x40 MLOAD SWAP1 DUP2 ADD PUSH1 0x40 MSTORE DUP1 SWAP3 SWAP2 SWAP1 DUP2 DUP2 MSTORE PUSH1 0x20 ADD DUP3 DUP1 SLOAD PUSH2 0x7D7 SWAP1 PUSH2 0x1632 JUMP JUMPDEST DUP1 ISZERO PUSH2 0x824 JUMPI DUP1 PUSH1 0x1F LT PUSH2 0x7F9 JUMPI PUSH2 0x100 DUP1 DUP4 SLOAD DIV MUL DUP4 MSTORE SWAP2 PUSH1 0x20 ADD SWAP2 PUSH2 0x824 JUMP JUMPDEST DUP3 ADD SWAP2 SWAP1 PUSH1 0x0 MSTORE PUSH1 0x20 PUSH1 0x0 KECCAK256 SWAP1 JUMPDEST DUP2 SLOAD DUP2 MSTORE SWAP1 PUSH1 0x1 ADD SWAP1 PUSH1 0x20 ADD DUP1 DUP4 GT PUSH2 0x807 JUMPI DUP3 SWAP1 SUB PUSH1 0x1F AND DUP3 ADD SWAP2 JUMPDEST POP POP POP POP POP DUP2 MSTORE PUSH1 0x20 ADD PUSH1 0x3 DUP3 ADD SLOAD DUP2 MSTORE PUSH1 0x20 ADD PUSH1 0x4 DUP3 ADD SLOAD DUP2 MSTORE PUSH1 0x20 ADD PUSH1 0x5 DUP3 ADD DUP1 SLOAD PUSH2 0x851 SWAP1 PUSH2 0x1632 JUMP JUMPDEST DUP1 PUSH1 0x1F ADD PUSH1 0x20 DUP1 SWAP2 DIV MUL PUSH1 0x20 ADD PUSH1 0x40 MLOAD SWAP1 DUP2 ADD PUSH1 0x40 MSTORE DUP1 SWAP3 SWAP2 SWAP1 DUP2 DUP2 MSTORE PUSH1 0x20 ADD DUP3 DUP1 SLOAD PUSH2 0x87D SWAP1 PUSH2 0x1632 JUMP JUMPDEST DUP1 ISZERO PUSH2 0x8CA JUMPI DUP1 PUSH1 0x1F LT PUSH2 0x89F JUMPI PUSH2 0x100 DUP1 DUP4 SLOAD DIV MUL DUP4 MSTORE SWAP2 PUSH1 0x20 ADD SWAP2 PUSH2 0x8CA JUMP JUMPDEST DUP3 ADD SWAP2 SWAP1 PUSH1 0x0 MSTORE PUSH1 0x20 PUSH1 0x0 KECCAK256 SWAP1 JUMPDEST DUP2 SLOAD DUP2 MSTORE SWAP1 PUSH1 0x1 ADD SWAP1 PUSH1 0x20 ADD DUP1 DUP4 GT PUSH2 0x8AD JUMPI DUP3 SWAP1 SUB PUSH1 0x1F AND DUP3 ADD SWAP2 JUMPDEST POP POP POP POP POP DUP2 MSTORE POP POP DUP6 DUP6 DUP2 MLOAD DUP2 LT PUSH2 0x8E6 JUMPI PUSH2 0x8E5 PUSH2 0x15D4 JUMP JUMPDEST JUMPDEST PUSH1 0x20 MUL PUSH1 0x20 ADD ADD DUP2 SWAP1 MSTORE POP DUP4 DUP1 PUSH2 0x8FC SWAP1 PUSH2 0x1558 JUMP JUMPDEST SWAP5 POP POP JUMPDEST DUP1 DUP1 PUSH1 0x1 ADD SWAP2 POP POP PUSH2 0x5E1 JUMP JUMPDEST POP DUP1 DUP1 PUSH2 0x919 SWAP1 PUSH2 0x19CA JUMP JUMPDEST SWAP2 POP POP PUSH2 0x5D2 JUMP JUMPDEST POP PUSH1 0x0 DUP3 PUSH8 0xFFFFFFFFFFFFFFFF DUP2 GT ISZERO PUSH2 0x93E JUMPI PUSH2 0x93D PUSH2 0xDE6 JUMP JUMPDEST JUMPDEST PUSH1 0x40 MLOAD SWAP1 DUP1 DUP3 MSTORE DUP1 PUSH1 0x20 MUL PUSH1 0x20 ADD DUP3 ADD PUSH1 0x40 MSTORE DUP1 ISZERO PUSH2 0x977 JUMPI DUP2 PUSH1 0x20 ADD JUMPDEST PUSH2 0x964 PUSH2 0xD54 JUMP JUMPDEST DUP2 MSTORE PUSH1 0x20 ADD SWAP1 PUSH1 0x1 SWAP1 SUB SWAP1 DUP2 PUSH2 0x95C JUMPI SWAP1 POP JUMPDEST POP SWAP1 POP PUSH1 0x0 JUMPDEST DUP4 DUP2 LT ISZERO PUSH2 0x9CB JUMPI DUP5 DUP2 DUP2 MLOAD DUP2 LT PUSH2 0x998 JUMPI PUSH2 0x997 PUSH2 0x15D4 JUMP JUMPDEST JUMPDEST PUSH1 0x20 MUL PUSH1 0x20 ADD ADD MLOAD DUP3 DUP3 DUP2 MLOAD DUP2 LT PUSH2 0x9B3 JUMPI PUSH2 0x9B2 PUSH2 0x15D4 JUMP JUMPDEST JUMPDEST PUSH1 0x20 MUL PUSH1 0x20 ADD ADD DUP2 SWAP1 MSTORE POP DUP1 DUP1 PUSH1 0x1 ADD SWAP2 POP POP PUSH2 0x97D JUMP JUMPDEST POP DUP1 SWAP6 POP POP POP POP POP POP SWAP2 SWAP1 POP JUMP JUMPDEST PUSH1 0x3 SLOAD DUP2 JUMP JUMPDEST PUSH1 0x2 PUSH1 0x20 MSTORE DUP1 PUSH1 0x0 MSTORE PUSH1 0x40 PUSH1 0x0 KECCAK256 PUSH1 0x0 SWAP2 POP SWAP1 POP DUP1 PUSH1 0x0 ADD SLOAD SWAP1 DUP1 PUSH1 0x13 ADD SLOAD SWAP1 POP DUP3 JUMP JUMPDEST PUSH1 0x3 SLOAD PUSH1 0x2 PUSH1 0x0 PUSH1 0x3 SLOAD DUP2 MSTORE PUSH1 0x20 ADD SWAP1 DUP2 MSTORE PUSH1 0x20 ADD PUSH1 0x0 KECCAK256 PUSH1 0x0 ADD DUP2 SWAP1 SSTORE POP PUSH1 0x0 PUSH1 0x2 PUSH1 0x0 PUSH1 0x3 SLOAD DUP2 MSTORE PUSH1 0x20 ADD SWAP1 DUP2 MSTORE PUSH1 0x20 ADD PUSH1 0x0 KECCAK256 PUSH1 0x13 ADD DUP2 SWAP1 SSTORE POP PUSH1 0x3 PUSH1 0x0 DUP2 SLOAD DUP1 SWAP3 SWAP2 SWAP1 PUSH2 0xA53 SWAP1 PUSH2 0x1558 JUMP JUMPDEST SWAP2 SWAP1 POP SSTORE POP JUMP JUMPDEST PUSH1 0x0 DUP1 PUSH1 0x0 DUP1 PUSH1 0x1 DUP6 PUSH1 0x40 MLOAD PUSH2 0xA70 SWAP2 SWAP1 PUSH2 0x1512 JUMP JUMPDEST SWAP1 DUP2 MSTORE PUSH1 0x20 ADD PUSH1 0x40 MLOAD DUP1 SWAP2 SUB SWAP1 KECCAK256 PUSH1 0x40 MLOAD DUP1 PUSH1 0x60 ADD PUSH1 0x40 MSTORE SWAP1 DUP2 PUSH1 0x0 DUP3 ADD SLOAD DUP2 MSTORE PUSH1 0x20 ADD PUSH1 0x1 DUP3 ADD SLOAD DUP2 MSTORE PUSH1 0x20 ADD PUSH1 0x2 DUP3 ADD SLOAD DUP2 MSTORE POP POP SWAP1 POP DUP1 PUSH1 0x0 ADD MLOAD DUP2 PUSH1 0x20 ADD MLOAD DUP3 PUSH1 0x40 ADD MLOAD SWAP4 POP SWAP4 POP SWAP4 POP POP SWAP2 SWAP4 SWAP1 SWAP3 POP JUMP JUMPDEST PUSH2 0xACE PUSH2 0xD8A JUMP JUMPDEST PUSH1 0x0 DUP3 LT ISZERO DUP1 ISZERO PUSH2 0xAE1 JUMPI POP PUSH1 0x3 SLOAD DUP3 GT ISZERO JUMPDEST PUSH2 0xB20 JUMPI PUSH1 0x40 MLOAD PUSH32 0x8C379A000000000000000000000000000000000000000000000000000000000 DUP2 MSTORE PUSH1 0x4 ADD PUSH2 0xB17 SWAP1 PUSH2 0x1424 JUMP JUMPDEST PUSH1 0x40 MLOAD DUP1 SWAP2 SUB SWAP1 REVERT JUMPDEST PUSH1 0x2 PUSH1 0x0 DUP4 DUP2 MSTORE PUSH1 0x20 ADD SWAP1 DUP2 MSTORE PUSH1 0x20 ADD PUSH1 0x0 KECCAK256 PUSH1 0x1 ADD PUSH1 0x3 DUP1 PUSH1 0x20 MUL PUSH1 0x40 MLOAD SWAP1 DUP2 ADD PUSH1 0x40 MSTORE DUP1 SWAP3 SWAP2 SWAP1 PUSH1 0x0 SWAP1 JUMPDEST DUP3 DUP3 LT ISZERO PUSH2 0xD49 JUMPI DUP4 DUP3 PUSH1 0x6 MUL ADD PUSH1 0x40 MLOAD DUP1 PUSH1 0xC0 ADD PUSH1 0x40 MSTORE SWAP1 DUP2 PUSH1 0x0 DUP3 ADD SLOAD DUP2 MSTORE PUSH1 0x20 ADD PUSH1 0x1 DUP3 ADD DUP1 SLOAD PUSH2 0xB80 SWAP1 PUSH2 0x1632 JUMP JUMPDEST DUP1 PUSH1 0x1F ADD PUSH1 0x20 DUP1 SWAP2 DIV MUL PUSH1 0x20 ADD PUSH1 0x40 MLOAD SWAP1 DUP2 ADD PUSH1 0x40 MSTORE DUP1 SWAP3 SWAP2 SWAP1 DUP2 DUP2 MSTORE PUSH1 0x20 ADD DUP3 DUP1 SLOAD PUSH2 0xBAC SWAP1 PUSH2 0x1632 JUMP JUMPDEST DUP1 ISZERO PUSH2 0xBF9 JUMPI DUP1 PUSH1 0x1F LT PUSH2 0xBCE JUMPI PUSH2 0x100 DUP1 DUP4 SLOAD DIV MUL DUP4 MSTORE SWAP2 PUSH1 0x20 ADD SWAP2 PUSH2 0xBF9 JUMP JUMPDEST DUP3 ADD SWAP2 SWAP1 PUSH1 0x0 MSTORE PUSH1 0x20 PUSH1 0x0 KECCAK256 SWAP1 JUMPDEST DUP2 SLOAD DUP2 MSTORE SWAP1 PUSH1 0x1 ADD SWAP1 PUSH1 0x20 ADD DUP1 DUP4 GT PUSH2 0xBDC JUMPI DUP3 SWAP1 SUB PUSH1 0x1F AND DUP3 ADD SWAP2 JUMPDEST POP POP POP POP POP DUP2 MSTORE PUSH1 0x20 ADD PUSH1 0x2 DUP3 ADD DUP1 SLOAD PUSH2 0xC12 SWAP1 PUSH2 0x1632 JUMP JUMPDEST DUP1 PUSH1 0x1F ADD PUSH1 0x20 DUP1 SWAP2 DIV MUL PUSH1 0x20 ADD PUSH1 0x40 MLOAD SWAP1 DUP2 ADD PUSH1 0x40 MSTORE DUP1 SWAP3 SWAP2 SWAP1 DUP2 DUP2 MSTORE PUSH1 0x20 ADD DUP3 DUP1 SLOAD PUSH2 0xC3E SWAP1 PUSH2 0x1632 JUMP JUMPDEST DUP1 ISZERO PUSH2 0xC8B JUMPI DUP1 PUSH1 0x1F LT PUSH2 0xC60 JUMPI PUSH2 0x100 DUP1 DUP4 SLOAD DIV MUL DUP4 MSTORE SWAP2 PUSH1 0x20 ADD SWAP2 PUSH2 0xC8B JUMP JUMPDEST DUP3 ADD SWAP2 SWAP1 PUSH1 0x0 MSTORE PUSH1 0x20 PUSH1 0x0 KECCAK256 SWAP1 JUMPDEST DUP2 SLOAD DUP2 MSTORE SWAP1 PUSH1 0x1 ADD SWAP1 PUSH1 0x20 ADD DUP1 DUP4 GT PUSH2 0xC6E JUMPI DUP3 SWAP1 SUB PUSH1 0x1F AND DUP3 ADD SWAP2 JUMPDEST POP POP POP POP POP DUP2 MSTORE PUSH1 0x20 ADD PUSH1 0x3 DUP3 ADD SLOAD DUP2 MSTORE PUSH1 0x20 ADD PUSH1 0x4 DUP3 ADD SLOAD DUP2 MSTORE PUSH1 0x20 ADD PUSH1 0x5 DUP3 ADD DUP1 SLOAD PUSH2 0xCB8 SWAP1 PUSH2 0x1632 JUMP JUMPDEST DUP1 PUSH1 0x1F ADD PUSH1 0x20 DUP1 SWAP2 DIV MUL PUSH1 0x20 ADD PUSH1 0x40 MLOAD SWAP1 DUP2 ADD PUSH1 0x40 MSTORE DUP1 SWAP3 SWAP2 SWAP1 DUP2 DUP2 MSTORE PUSH1 0x20 ADD DUP3 DUP1 SLOAD PUSH2 0xCE4 SWAP1 PUSH2 0x1632 JUMP JUMPDEST DUP1 ISZERO PUSH2 0xD31 JUMPI DUP1 PUSH1 0x1F LT PUSH2 0xD06 JUMPI PUSH2 0x100 DUP1 DUP4 SLOAD DIV MUL DUP4 MSTORE SWAP2 PUSH1 0x20 ADD SWAP2 PUSH2 0xD31 JUMP JUMPDEST DUP3 ADD SWAP2 SWAP1 PUSH1 0x0 MSTORE PUSH1 0x20 PUSH1 0x0 KECCAK256 SWAP1 JUMPDEST DUP2 SLOAD DUP2 MSTORE SWAP1 PUSH1 0x1 ADD SWAP1 PUSH1 0x20 ADD DUP1 DUP4 GT PUSH2 0xD14 JUMPI DUP3 SWAP1 SUB PUSH1 0x1F AND DUP3 ADD SWAP2 JUMPDEST POP POP POP POP POP DUP2 MSTORE POP POP DUP2 MSTORE PUSH1 0x20 ADD SWAP1 PUSH1 0x1 ADD SWAP1 PUSH2 0xB4D JUMP JUMPDEST POP POP POP POP SWAP1 POP SWAP2 SWAP1 POP JUMP JUMPDEST PUSH1 0x40 MLOAD DUP1 PUSH1 0xC0 ADD PUSH1 0x40 MSTORE DUP1 PUSH1 0x0 DUP2 MSTORE PUSH1 0x20 ADD PUSH1 0x60 DUP2 MSTORE PUSH1 0x20 ADD PUSH1 0x60 DUP2 MSTORE PUSH1 0x20 ADD PUSH1 0x0 DUP2 MSTORE PUSH1 0x20 ADD PUSH1 0x0 DUP2 MSTORE PUSH1 0x20 ADD PUSH1 0x60 DUP2 MSTORE POP SWAP1 JUMP JUMPDEST PUSH1 0x40 MLOAD DUP1 PUSH1 0x60 ADD PUSH1 0x40 MSTORE DUP1 PUSH1 0x3 SWAP1 JUMPDEST PUSH2 0xDA1 PUSH2 0xD54 JUMP JUMPDEST DUP2 MSTORE PUSH1 0x20 ADD SWAP1 PUSH1 0x1 SWAP1 SUB SWAP1 DUP2 PUSH2 0xD99 JUMPI SWAP1 POP POP SWAP1 JUMP JUMPDEST PUSH1 0x0 PUSH1 0x40 MLOAD SWAP1 POP SWAP1 JUMP JUMPDEST PUSH1 0x0 DUP1 REVERT JUMPDEST PUSH1 0x0 DUP1 REVERT JUMPDEST PUSH1 0x0 DUP1 REVERT JUMPDEST PUSH1 0x0 DUP1 REVERT JUMPDEST PUSH1 0x0 PUSH1 0x1F NOT PUSH1 0x1F DUP4 ADD AND SWAP1 POP SWAP2 SWAP1 POP JUMP JUMPDEST PUSH32 0x4E487B7100000000000000000000000000000000000000000000000000000000 PUSH1 0x0 MSTORE PUSH1 0x41 PUSH1 0x4 MSTORE PUSH1 0x24 PUSH1 0x0 REVERT JUMPDEST PUSH2 0xE1E DUP3 PUSH2 0xDD5 JUMP JUMPDEST DUP2 ADD DUP2 DUP2 LT PUSH8 0xFFFFFFFFFFFFFFFF DUP3 GT OR ISZERO PUSH2 0xE3D JUMPI PUSH2 0xE3C PUSH2 0xDE6 JUMP JUMPDEST JUMPDEST DUP1 PUSH1 0x40 MSTORE POP POP POP JUMP JUMPDEST PUSH1 0x0 PUSH2 0xE50 PUSH2 0xDB7 JUMP JUMPDEST SWAP1 POP PUSH2 0xE5C DUP3 DUP3 PUSH2 0xE15 JUMP JUMPDEST SWAP2 SWAP1 POP JUMP JUMPDEST PUSH1 0x0 PUSH8 0xFFFFFFFFFFFFFFFF DUP3 GT ISZERO PUSH2 0xE7C JUMPI PUSH2 0xE7B PUSH2 0xDE6 JUMP JUMPDEST JUMPDEST PUSH2 0xE85 DUP3 PUSH2 0xDD5 JUMP JUMPDEST SWAP1 POP PUSH1 0x20 DUP2 ADD SWAP1 POP SWAP2 SWAP1 POP JUMP JUMPDEST DUP3 DUP2 DUP4 CALLDATACOPY PUSH1 0x0 DUP4 DUP4 ADD MSTORE POP POP POP JUMP JUMPDEST PUSH1 0x0 PUSH2 0xEB4 PUSH2 0xEAF DUP5 PUSH2 0xE61 JUMP JUMPDEST PUSH2 0xE46 JUMP JUMPDEST SWAP1 POP DUP3 DUP2 MSTORE PUSH1 0x20 DUP2 ADD DUP5 DUP5 DUP5 ADD GT ISZERO PUSH2 0xED0 JUMPI PUSH2 0xECF PUSH2 0xDD0 JUMP JUMPDEST JUMPDEST PUSH2 0xEDB DUP5 DUP3 DUP6 PUSH2 0xE92 JUMP JUMPDEST POP SWAP4 SWAP3 POP POP POP JUMP JUMPDEST PUSH1 0x0 DUP3 PUSH1 0x1F DUP4 ADD SLT PUSH2 0xEF8 JUMPI PUSH2 0xEF7 PUSH2 0xDCB JUMP JUMPDEST JUMPDEST DUP2 CALLDATALOAD PUSH2 0xF08 DUP5 DUP3 PUSH1 0x20 DUP7 ADD PUSH2 0xEA1 JUMP JUMPDEST SWAP2 POP POP SWAP3 SWAP2 POP POP JUMP JUMPDEST PUSH1 0x0 PUSH1 0x20 DUP3 DUP5 SUB SLT ISZERO PUSH2 0xF27 JUMPI PUSH2 0xF26 PUSH2 0xDC1 JUMP JUMPDEST JUMPDEST PUSH1 0x0 DUP3 ADD CALLDATALOAD PUSH8 0xFFFFFFFFFFFFFFFF DUP2 GT ISZERO PUSH2 0xF45 JUMPI PUSH2 0xF44 PUSH2 0xDC6 JUMP JUMPDEST JUMPDEST PUSH2 0xF51 DUP5 DUP3 DUP6 ADD PUSH2 0xEE3 JUMP JUMPDEST SWAP2 POP POP SWAP3 SWAP2 POP POP JUMP JUMPDEST PUSH1 0x0 DUP2 SWAP1 POP SWAP2 SWAP1 POP JUMP JUMPDEST PUSH2 0xF6D DUP2 PUSH2 0xF5A JUMP JUMPDEST DUP3 MSTORE POP POP JUMP JUMPDEST PUSH1 0x0 PUSH1 0x60 DUP3 ADD SWAP1 POP PUSH2 0xF88 PUSH1 0x0 DUP4 ADD DUP7 PUSH2 0xF64 JUMP JUMPDEST PUSH2 0xF95 PUSH1 0x20 DUP4 ADD DUP6 PUSH2 0xF64 JUMP JUMPDEST PUSH2 0xFA2 PUSH1 0x40 DUP4 ADD DUP5 PUSH2 0xF64 JUMP JUMPDEST SWAP5 SWAP4 POP POP POP POP JUMP JUMPDEST PUSH2 0xFB3 DUP2 PUSH2 0xF5A JUMP JUMPDEST DUP2 EQ PUSH2 0xFBE JUMPI PUSH1 0x0 DUP1 REVERT JUMPDEST POP JUMP JUMPDEST PUSH1 0x0 DUP2 CALLDATALOAD SWAP1 POP PUSH2 0xFD0 DUP2 PUSH2 0xFAA JUMP JUMPDEST SWAP3 SWAP2 POP POP JUMP JUMPDEST PUSH1 0x0 DUP1 PUSH1 0x0 DUP1 PUSH1 0x0 PUSH1 0xA0 DUP7 DUP9 SUB SLT ISZERO PUSH2 0xFF2 JUMPI PUSH2 0xFF1 PUSH2 0xDC1 JUMP JUMPDEST JUMPDEST PUSH1 0x0 PUSH2 0x1000 DUP9 DUP3 DUP10 ADD PUSH2 0xFC1 JUMP JUMPDEST SWAP6 POP POP PUSH1 0x20 DUP7 ADD CALLDATALOAD PUSH8 0xFFFFFFFFFFFFFFFF DUP2 GT ISZERO PUSH2 0x1021 JUMPI PUSH2 0x1020 PUSH2 0xDC6 JUMP JUMPDEST JUMPDEST PUSH2 0x102D DUP9 DUP3 DUP10 ADD PUSH2 0xEE3 JUMP JUMPDEST SWAP5 POP POP PUSH1 0x40 DUP7 ADD CALLDATALOAD PUSH8 0xFFFFFFFFFFFFFFFF DUP2 GT ISZERO PUSH2 0x104E JUMPI PUSH2 0x104D PUSH2 0xDC6 JUMP JUMPDEST JUMPDEST PUSH2 0x105A DUP9 DUP3 DUP10 ADD PUSH2 0xEE3 JUMP JUMPDEST SWAP4 POP POP PUSH1 0x60 PUSH2 0x106B DUP9 DUP3 DUP10 ADD PUSH2 0xFC1 JUMP JUMPDEST SWAP3 POP POP PUSH1 0x80 PUSH2 0x107C DUP9 DUP3 DUP10 ADD PUSH2 0xFC1 JUMP JUMPDEST SWAP2 POP POP SWAP3 SWAP6 POP SWAP3 SWAP6 SWAP1 SWAP4 POP JUMP JUMPDEST PUSH1 0x0 DUP2 MLOAD SWAP1 POP SWAP2 SWAP1 POP JUMP JUMPDEST PUSH1 0x0 DUP3 DUP3 MSTORE PUSH1 0x20 DUP3 ADD SWAP1 POP SWAP3 SWAP2 POP POP JUMP JUMPDEST PUSH1 0x0 DUP2 SWAP1 POP PUSH1 0x20 DUP3 ADD SWAP1 POP SWAP2 SWAP1 POP JUMP JUMPDEST PUSH2 0x10BE DUP2 PUSH2 0xF5A JUMP JUMPDEST DUP3 MSTORE POP POP JUMP JUMPDEST PUSH1 0x0 DUP2 MLOAD SWAP1 POP SWAP2 SWAP1 POP JUMP JUMPDEST PUSH1 0x0 DUP3 DUP3 MSTORE PUSH1 0x20 DUP3 ADD SWAP1 POP SWAP3 SWAP2 POP POP JUMP JUMPDEST PUSH1 0x0 JUMPDEST DUP4 DUP2 LT ISZERO PUSH2 0x10FE JUMPI DUP1 DUP3 ADD MLOAD DUP2 DUP5 ADD MSTORE PUSH1 0x20 DUP2 ADD SWAP1 POP PUSH2 0x10E3 JUMP JUMPDEST PUSH1 0x0 DUP5 DUP5 ADD MSTORE POP POP POP POP JUMP JUMPDEST PUSH1 0x0 PUSH2 0x1115 DUP3 PUSH2 0x10C4 JUMP JUMPDEST PUSH2 0x111F DUP2 DUP6 PUSH2 0x10CF JUMP JUMPDEST SWAP4 POP PUSH2 0x112F DUP2 DUP6 PUSH1 0x20 DUP7 ADD PUSH2 0x10E0 JUMP JUMPDEST PUSH2 0x1138 DUP2 PUSH2 0xDD5 JUMP JUMPDEST DUP5 ADD SWAP2 POP POP SWAP3 SWAP2 POP POP JUMP JUMPDEST PUSH1 0x0 PUSH1 0xC0 DUP4 ADD PUSH1 0x0 DUP4 ADD MLOAD PUSH2 0x115B PUSH1 0x0 DUP7 ADD DUP3 PUSH2 0x10B5 JUMP JUMPDEST POP PUSH1 0x20 DUP4 ADD MLOAD DUP5 DUP3 SUB PUSH1 0x20 DUP7 ADD MSTORE PUSH2 0x1173 DUP3 DUP3 PUSH2 0x110A JUMP JUMPDEST SWAP2 POP POP PUSH1 0x40 DUP4 ADD MLOAD DUP5 DUP3 SUB PUSH1 0x40 DUP7 ADD MSTORE PUSH2 0x118D DUP3 DUP3 PUSH2 0x110A JUMP JUMPDEST SWAP2 POP POP PUSH1 0x60 DUP4 ADD MLOAD PUSH2 0x11A2 PUSH1 0x60 DUP7 ADD DUP3 PUSH2 0x10B5 JUMP JUMPDEST POP PUSH1 0x80 DUP4 ADD MLOAD PUSH2 0x11B5 PUSH1 0x80 DUP7 ADD DUP3 PUSH2 0x10B5 JUMP JUMPDEST POP PUSH1 0xA0 DUP4 ADD MLOAD DUP5 DUP3 SUB PUSH1 0xA0 DUP7 ADD MSTORE PUSH2 0x11CD DUP3 DUP3 PUSH2 0x110A JUMP JUMPDEST SWAP2 POP POP DUP1 SWAP2 POP POP SWAP3 SWAP2 POP POP JUMP JUMPDEST PUSH1 0x0 PUSH2 0x11E6 DUP4 DUP4 PUSH2 0x1143 JUMP JUMPDEST SWAP1 POP SWAP3 SWAP2 POP POP JUMP JUMPDEST PUSH1 0x0 PUSH1 0x20 DUP3 ADD SWAP1 POP SWAP2 SWAP1 POP JUMP JUMPDEST PUSH1 0x0 PUSH2 0x1206 DUP3 PUSH2 0x1089 JUMP JUMPDEST PUSH2 0x1210 DUP2 DUP6 PUSH2 0x1094 JUMP JUMPDEST SWAP4 POP DUP4 PUSH1 0x20 DUP3 MUL DUP6 ADD PUSH2 0x1222 DUP6 PUSH2 0x10A5 JUMP JUMPDEST DUP1 PUSH1 0x0 JUMPDEST DUP6 DUP2 LT ISZERO PUSH2 0x125E JUMPI DUP5 DUP5 SUB DUP10 MSTORE DUP2 MLOAD PUSH2 0x123F DUP6 DUP3 PUSH2 0x11DA JUMP JUMPDEST SWAP5 POP PUSH2 0x124A DUP4 PUSH2 0x11EE JUMP JUMPDEST SWAP3 POP PUSH1 0x20 DUP11 ADD SWAP10 POP POP PUSH1 0x1 DUP2 ADD SWAP1 POP PUSH2 0x1226 JUMP JUMPDEST POP DUP3 SWAP8 POP DUP8 SWAP6 POP POP POP POP POP POP SWAP3 SWAP2 POP POP JUMP JUMPDEST PUSH1 0x0 PUSH1 0x20 DUP3 ADD SWAP1 POP DUP2 DUP2 SUB PUSH1 0x0 DUP4 ADD MSTORE PUSH2 0x128A DUP2 DUP5 PUSH2 0x11FB JUMP JUMPDEST SWAP1 POP SWAP3 SWAP2 POP POP JUMP JUMPDEST PUSH1 0x0 PUSH1 0x20 DUP3 ADD SWAP1 POP PUSH2 0x12A7 PUSH1 0x0 DUP4 ADD DUP5 PUSH2 0xF64 JUMP JUMPDEST SWAP3 SWAP2 POP POP JUMP JUMPDEST PUSH1 0x0 PUSH1 0x20 DUP3 DUP5 SUB SLT ISZERO PUSH2 0x12C3 JUMPI PUSH2 0x12C2 PUSH2 0xDC1 JUMP JUMPDEST JUMPDEST PUSH1 0x0 PUSH2 0x12D1 DUP5 DUP3 DUP6 ADD PUSH2 0xFC1 JUMP JUMPDEST SWAP2 POP POP SWAP3 SWAP2 POP POP JUMP JUMPDEST PUSH1 0x0 PUSH1 0x40 DUP3 ADD SWAP1 POP PUSH2 0x12EF PUSH1 0x0 DUP4 ADD DUP6 PUSH2 0xF64 JUMP JUMPDEST PUSH2 0x12FC PUSH1 0x20 DUP4 ADD DUP5 PUSH2 0xF64 JUMP JUMPDEST SWAP4 SWAP3 POP POP POP JUMP JUMPDEST PUSH1 0x0 PUSH1 0x3 SWAP1 POP SWAP2 SWAP1 POP JUMP JUMPDEST PUSH1 0x0 DUP2 SWAP1 POP SWAP3 SWAP2 POP POP JUMP JUMPDEST PUSH1 0x0 DUP2 SWAP1 POP SWAP2 SWAP1 POP JUMP JUMPDEST PUSH1 0x0 PUSH1 0x20 DUP3 ADD SWAP1 POP SWAP2 SWAP1 POP JUMP JUMPDEST PUSH1 0x0 PUSH2 0x133B DUP3 PUSH2 0x1303 JUMP JUMPDEST PUSH2 0x1345 DUP2 DUP6 PUSH2 0x130E JUMP JUMPDEST SWAP4 POP DUP4 PUSH1 0x20 DUP3 MUL DUP6 ADD PUSH2 0x1357 DUP6 PUSH2 0x1319 JUMP JUMPDEST DUP1 PUSH1 0x0 JUMPDEST DUP6 DUP2 LT ISZERO PUSH2 0x1393 JUMPI DUP5 DUP5 SUB DUP10 MSTORE DUP2 MLOAD PUSH2 0x1374 DUP6 DUP3 PUSH2 0x11DA JUMP JUMPDEST SWAP5 POP PUSH2 0x137F DUP4 PUSH2 0x1323 JUMP JUMPDEST SWAP3 POP PUSH1 0x20 DUP11 ADD SWAP10 POP POP PUSH1 0x1 DUP2 ADD SWAP1 POP PUSH2 0x135B JUMP JUMPDEST POP DUP3 SWAP8 POP DUP8 SWAP6 POP POP POP POP POP POP SWAP3 SWAP2 POP POP JUMP JUMPDEST PUSH1 0x0 PUSH1 0x20 DUP3 ADD SWAP1 POP DUP2 DUP2 SUB PUSH1 0x0 DUP4 ADD MSTORE PUSH2 0x13BF DUP2 DUP5 PUSH2 0x1330 JUMP JUMPDEST SWAP1 POP SWAP3 SWAP2 POP POP JUMP JUMPDEST PUSH1 0x0 DUP3 DUP3 MSTORE PUSH1 0x20 DUP3 ADD SWAP1 POP SWAP3 SWAP2 POP POP JUMP JUMPDEST PUSH32 0x496E76616C696420746F75726E616D656E742049440000000000000000000000 PUSH1 0x0 DUP3 ADD MSTORE POP JUMP JUMPDEST PUSH1 0x0 PUSH2 0x140E PUSH1 0x15 DUP4 PUSH2 0x13C7 JUMP JUMPDEST SWAP2 POP PUSH2 0x1419 DUP3 PUSH2 0x13D8 JUMP JUMPDEST PUSH1 0x20 DUP3 ADD SWAP1 POP SWAP2 SWAP1 POP JUMP JUMPDEST PUSH1 0x0 PUSH1 0x20 DUP3 ADD SWAP1 POP DUP2 DUP2 SUB PUSH1 0x0 DUP4 ADD MSTORE PUSH2 0x143D DUP2 PUSH2 0x1401 JUMP JUMPDEST SWAP1 POP SWAP2 SWAP1 POP JUMP JUMPDEST PUSH32 0x43616E6E6F7420616464206D6F7265207468616E2033206D6174636865732070 PUSH1 0x0 DUP3 ADD MSTORE PUSH32 0x657220746F75726E616D656E7400000000000000000000000000000000000000 PUSH1 0x20 DUP3 ADD MSTORE POP JUMP JUMPDEST PUSH1 0x0 PUSH2 0x14A0 PUSH1 0x2D DUP4 PUSH2 0x13C7 JUMP JUMPDEST SWAP2 POP PUSH2 0x14AB DUP3 PUSH2 0x1444 JUMP JUMPDEST PUSH1 0x40 DUP3 ADD SWAP1 POP SWAP2 SWAP1 POP JUMP JUMPDEST PUSH1 0x0 PUSH1 0x20 DUP3 ADD SWAP1 POP DUP2 DUP2 SUB PUSH1 0x0 DUP4 ADD MSTORE PUSH2 0x14CF DUP2 PUSH2 0x1493 JUMP JUMPDEST SWAP1 POP SWAP2 SWAP1 POP JUMP JUMPDEST PUSH1 0x0 DUP2 SWAP1 POP SWAP3 SWAP2 POP POP JUMP JUMPDEST PUSH1 0x0 PUSH2 0x14EC DUP3 PUSH2 0x10C4 JUMP JUMPDEST PUSH2 0x14F6 DUP2 DUP6 PUSH2 0x14D6 JUMP JUMPDEST SWAP4 POP PUSH2 0x1506 DUP2 DUP6 PUSH1 0x20 DUP7 ADD PUSH2 0x10E0 JUMP JUMPDEST DUP1 DUP5 ADD SWAP2 POP POP SWAP3 SWAP2 POP POP JUMP JUMPDEST PUSH1 0x0 PUSH2 0x151E DUP3 DUP5 PUSH2 0x14E1 JUMP JUMPDEST SWAP2 POP DUP2 SWAP1 POP SWAP3 SWAP2 POP POP JUMP JUMPDEST PUSH32 0x4E487B7100000000000000000000000000000000000000000000000000000000 PUSH1 0x0 MSTORE PUSH1 0x11 PUSH1 0x4 MSTORE PUSH1 0x24 PUSH1 0x0 REVERT JUMPDEST PUSH1 0x0 PUSH2 0x1563 DUP3 PUSH2 0xF5A JUMP JUMPDEST SWAP2 POP PUSH32 0xFFFFFFFFFFFFFFFFFFFFFFFFFFFFFFFFFFFFFFFFFFFFFFFFFFFFFFFFFFFFFFFF DUP3 SUB PUSH2 0x1595 JUMPI PUSH2 0x1594 PUSH2 0x1529 JUMP JUMPDEST JUMPDEST PUSH1 0x1 DUP3 ADD SWAP1 POP SWAP2 SWAP1 POP JUMP JUMPDEST PUSH1 0x0 PUSH2 0x15AB DUP3 PUSH2 0xF5A JUMP JUMPDEST SWAP2 POP PUSH2 0x15B6 DUP4 PUSH2 0xF5A JUMP JUMPDEST SWAP3 POP DUP3 DUP3 ADD SWAP1 POP DUP1 DUP3 GT ISZERO PUSH2 0x15CE JUMPI PUSH2 0x15CD PUSH2 0x1529 JUMP JUMPDEST JUMPDEST SWAP3 SWAP2 POP POP JUMP JUMPDEST PUSH32 0x4E487B7100000000000000000000000000000000000000000000000000000000 PUSH1 0x0 MSTORE PUSH1 0x32 PUSH1 0x4 MSTORE PUSH1 0x24 PUSH1 0x0 REVERT JUMPDEST PUSH32 0x4E487B7100000000000000000000000000000000000000000000000000000000 PUSH1 0x0 MSTORE PUSH1 0x22 PUSH1 0x4 MSTORE PUSH1 0x24 PUSH1 0x0 REVERT JUMPDEST PUSH1 0x0 PUSH1 0x2 DUP3 DIV SWAP1 POP PUSH1 0x1 DUP3 AND DUP1 PUSH2 0x164A JUMPI PUSH1 0x7F DUP3 AND SWAP2 POP JUMPDEST PUSH1 0x20 DUP3 LT DUP2 SUB PUSH2 0x165D JUMPI PUSH2 0x165C PUSH2 0x1603 JUMP JUMPDEST JUMPDEST POP SWAP2 SWAP1 POP JUMP JUMPDEST PUSH1 0x0 DUP2 SWAP1 POP DUP2 PUSH1 0x0 MSTORE PUSH1 0x20 PUSH1 0x0 KECCAK256 SWAP1 POP SWAP2 SWAP1 POP JUMP JUMPDEST PUSH1 0x0 PUSH1 0x20 PUSH1 0x1F DUP4 ADD DIV SWAP1 POP SWAP2 SWAP1 POP JUMP JUMPDEST PUSH1 0x0 DUP3 DUP3 SHL SWAP1 POP SWAP3 SWAP2 POP POP JUMP JUMPDEST PUSH1 0x0 PUSH1 0x8 DUP4 MUL PUSH2 0x16C5 PUSH32 0xFFFFFFFFFFFFFFFFFFFFFFFFFFFFFFFFFFFFFFFFFFFFFFFFFFFFFFFFFFFFFFFF DUP3 PUSH2 0x1688 JUMP JUMPDEST PUSH2 0x16CF DUP7 DUP4 PUSH2 0x1688 JUMP JUMPDEST SWAP6 POP DUP1 NOT DUP5 AND SWAP4 POP DUP1 DUP7 AND DUP5 OR SWAP3 POP POP POP SWAP4 SWAP3 POP POP POP JUMP JUMPDEST PUSH1 0x0 DUP2 SWAP1 POP SWAP2 SWAP1 POP JUMP JUMPDEST PUSH1 0x0 PUSH2 0x170C PUSH2 0x1707 PUSH2 0x1702 DUP5 PUSH2 0xF5A JUMP JUMPDEST PUSH2 0x16E7 JUMP JUMPDEST PUSH2 0xF5A JUMP JUMPDEST SWAP1 POP SWAP2 SWAP1 POP JUMP JUMPDEST PUSH1 0x0 DUP2 SWAP1 POP SWAP2 SWAP1 POP JUMP JUMPDEST PUSH2 0x1726 DUP4 PUSH2 0x16F1 JUMP JUMPDEST PUSH2 0x173A PUSH2 0x1732 DUP3 PUSH2 0x1713 JUMP JUMPDEST DUP5 DUP5 SLOAD PUSH2 0x1695 JUMP JUMPDEST DUP3 SSTORE POP POP POP POP JUMP JUMPDEST PUSH1 0x0 SWAP1 JUMP JUMPDEST PUSH2 0x174F PUSH2 0x1742 JUMP JUMPDEST PUSH2 0x175A DUP2 DUP5 DUP5 PUSH2 0x171D JUMP JUMPDEST POP POP POP JUMP JUMPDEST JUMPDEST DUP2 DUP2 LT ISZERO PUSH2 0x177E JUMPI PUSH2 0x1773 PUSH1 0x0 DUP3 PUSH2 0x1747 JUMP JUMPDEST PUSH1 0x1 DUP2 ADD SWAP1 POP PUSH2 0x1760 JUMP JUMPDEST POP POP JUMP JUMPDEST PUSH1 0x1F DUP3 GT ISZERO PUSH2 0x17C3 JUMPI PUSH2 0x1794 DUP2 PUSH2 0x1663 JUMP JUMPDEST PUSH2 0x179D DUP5 PUSH2 0x1678 JUMP JUMPDEST DUP2 ADD PUSH1 0x20 DUP6 LT ISZERO PUSH2 0x17AC JUMPI DUP2 SWAP1 POP JUMPDEST PUSH2 0x17C0 PUSH2 0x17B8 DUP6 PUSH2 0x1678 JUMP JUMPDEST DUP4 ADD DUP3 PUSH2 0x175F JUMP JUMPDEST POP POP JUMPDEST POP POP POP JUMP JUMPDEST PUSH1 0x0 DUP3 DUP3 SHR SWAP1 POP SWAP3 SWAP2 POP POP JUMP JUMPDEST PUSH1 0x0 PUSH2 0x17E6 PUSH1 0x0 NOT DUP5 PUSH1 0x8 MUL PUSH2 0x17C8 JUMP JUMPDEST NOT DUP1 DUP4 AND SWAP2 POP POP SWAP3 SWAP2 POP POP JUMP JUMPDEST PUSH1 0x0 PUSH2 0x17FF DUP4 DUP4 PUSH2 0x17D5 JUMP JUMPDEST SWAP2 POP DUP3 PUSH1 0x2 MUL DUP3 OR SWAP1 POP SWAP3 SWAP2 POP POP JUMP JUMPDEST PUSH2 0x1818 DUP3 PUSH2 0x10C4 JUMP JUMPDEST PUSH8 0xFFFFFFFFFFFFFFFF DUP2 GT ISZERO PUSH2 0x1831 JUMPI PUSH2 0x1830 PUSH2 0xDE6 JUMP JUMPDEST JUMPDEST PUSH2 0x183B DUP3 SLOAD PUSH2 0x1632 JUMP JUMPDEST PUSH2 0x1846 DUP3 DUP3 DUP6 PUSH2 0x1782 JUMP JUMPDEST PUSH1 0x0 PUSH1 0x20 SWAP1 POP PUSH1 0x1F DUP4 GT PUSH1 0x1 DUP2 EQ PUSH2 0x1879 JUMPI PUSH1 0x0 DUP5 ISZERO PUSH2 0x1867 JUMPI DUP3 DUP8 ADD MLOAD SWAP1 POP JUMPDEST PUSH2 0x1871 DUP6 DUP3 PUSH2 0x17F3 JUMP JUMPDEST DUP7 SSTORE POP PUSH2 0x18D9 JUMP JUMPDEST PUSH1 0x1F NOT DUP5 AND PUSH2 0x1887 DUP7 PUSH2 0x1663 JUMP JUMPDEST PUSH1 0x0 JUMPDEST DUP3 DUP2 LT ISZERO PUSH2 0x18AF JUMPI DUP5 DUP10 ADD MLOAD DUP3 SSTORE PUSH1 0x1 DUP3 ADD SWAP2 POP PUSH1 0x20 DUP6 ADD SWAP5 POP PUSH1 0x20 DUP2 ADD SWAP1 POP PUSH2 0x188A JUMP JUMPDEST DUP7 DUP4 LT ISZERO PUSH2 0x18CC JUMPI DUP5 DUP10 ADD MLOAD PUSH2 0x18C8 PUSH1 0x1F DUP10 AND DUP3 PUSH2 0x17D5 JUMP JUMPDEST DUP4 SSTORE POP JUMPDEST PUSH1 0x1 PUSH1 0x2 DUP9 MUL ADD DUP9 SSTORE POP POP POP JUMPDEST POP POP POP POP POP POP JUMP JUMPDEST PUSH1 0x0 PUSH2 0x18EC DUP3 PUSH2 0xF5A JUMP JUMPDEST SWAP2 POP PUSH2 0x18F7 DUP4 PUSH2 0xF5A JUMP JUMPDEST SWAP3 POP DUP3 DUP3 MUL PUSH2 0x1905 DUP2 PUSH2 0xF5A JUMP JUMPDEST SWAP2 POP DUP3 DUP3 DIV DUP5 EQ DUP4 ISZERO OR PUSH2 0x191C JUMPI PUSH2 0x191B PUSH2 0x1529 JUMP JUMPDEST JUMPDEST POP SWAP3 SWAP2 POP POP JUMP JUMPDEST PUSH1 0x0 DUP2 SLOAD PUSH2 0x1930 DUP2 PUSH2 0x1632 JUMP JUMPDEST PUSH2 0x193A DUP2 DUP7 PUSH2 0x14D6 JUMP JUMPDEST SWAP5 POP PUSH1 0x1 DUP3 AND PUSH1 0x0 DUP2 EQ PUSH2 0x1955 JUMPI PUSH1 0x1 DUP2 EQ PUSH2 0x196A JUMPI PUSH2 0x199D JUMP JUMPDEST PUSH1 0xFF NOT DUP4 AND DUP7 MSTORE DUP2 ISZERO ISZERO DUP3 MUL DUP7 ADD SWAP4 POP PUSH2 0x199D JUMP JUMPDEST PUSH2 0x1973 DUP6 PUSH2 0x1663 JUMP JUMPDEST PUSH1 0x0 JUMPDEST DUP4 DUP2 LT ISZERO PUSH2 0x1995 JUMPI DUP2 SLOAD DUP2 DUP10 ADD MSTORE PUSH1 0x1 DUP3 ADD SWAP2 POP PUSH1 0x20 DUP2 ADD SWAP1 POP PUSH2 0x1976 JUMP JUMPDEST DUP4 DUP9 ADD SWAP6 POP POP POP JUMPDEST POP POP POP SWAP3 SWAP2 POP POP JUMP JUMPDEST PUSH1 0x0 PUSH2 0x19B2 DUP3 DUP5 PUSH2 0x1923 JUMP JUMPDEST SWAP2 POP DUP2 SWAP1 POP SWAP3 SWAP2 POP POP JUMP JUMPDEST PUSH1 0x0 PUSH1 0xFF DUP3 AND SWAP1 POP SWAP2 SWAP1 POP JUMP JUMPDEST PUSH1 0x0 PUSH2 0x19D5 DUP3 PUSH2 0x19BD JUMP JUMPDEST SWAP2 POP PUSH1 0xFF DUP3 SUB PUSH2 0x19E8 JUMPI PUSH2 0x19E7 PUSH2 0x1529 JUMP JUMPDEST JUMPDEST PUSH1 0x1 DUP3 ADD SWAP1 POP SWAP2 SWAP1 POP JUMP INVALID LOG2 PUSH5 0x6970667358 0x22 SLT KECCAK256 0xA8 PUSH11 0xBA4E948EA7C28F6A7C7E7E 0xC3 CALLER 0x29 0xDB PUSH10 0x229AEEEC8A20C523F42F 0xE4 SGT DIV 0xE7 PUSH5 0x736F6C6343 STOP ADDMOD SHL STOP CALLER "
        },
        "methodIdentifiers": {
          "createTournament()": "9dae6081",
          "getAllMatchesPlayedByThePlayer(string)": "5e42ea0e",
          "getPlayerStats(string)": "c2b8eaa3",
          "getTournamentMatches(uint256)": "d8c57e85",
          "playerStats(string)": "2a9bc781",
          "recordMatch(uint256,string,string,uint256,uint256)": "45feda97",
          "tournamentCounter()": "73ed5c1c",
          "tournaments(uint256)": "7503e1b7"
        }
      }
    }
  }
}